{
  "_format": "hh-sol-artifact-1",
  "contractName": "ZiNFT",
  "sourceName": "contracts/ZiNFT.sol",
  "abi": [
    {
      "inputs": [],
      "stateMutability": "nonpayable",
      "type": "constructor"
    },
    {
      "anonymous": false,
      "inputs": [
        {
          "indexed": true,
          "internalType": "address",
          "name": "owner",
          "type": "address"
        },
        {
          "indexed": true,
          "internalType": "address",
          "name": "approved",
          "type": "address"
        },
        {
          "indexed": true,
          "internalType": "uint256",
          "name": "tokenId",
          "type": "uint256"
        }
      ],
      "name": "Approval",
      "type": "event"
    },
    {
      "anonymous": false,
      "inputs": [
        {
          "indexed": true,
          "internalType": "address",
          "name": "owner",
          "type": "address"
        },
        {
          "indexed": true,
          "internalType": "address",
          "name": "operator",
          "type": "address"
        },
        {
          "indexed": false,
          "internalType": "bool",
          "name": "approved",
          "type": "bool"
        }
      ],
      "name": "ApprovalForAll",
      "type": "event"
    },
    {
      "anonymous": false,
      "inputs": [
        {
          "indexed": false,
          "internalType": "address",
          "name": "sender",
          "type": "address"
        },
        {
          "indexed": false,
          "internalType": "uint256",
          "name": "tokenId",
          "type": "uint256"
        }
      ],
      "name": "NewEpicNFTMinted",
      "type": "event"
    },
    {
      "anonymous": false,
      "inputs": [
        {
          "indexed": true,
          "internalType": "address",
          "name": "from",
          "type": "address"
        },
        {
          "indexed": true,
          "internalType": "address",
          "name": "to",
          "type": "address"
        },
        {
          "indexed": true,
          "internalType": "uint256",
          "name": "tokenId",
          "type": "uint256"
        }
      ],
      "name": "Transfer",
      "type": "event"
    },
    {
      "inputs": [
        {
          "internalType": "address",
          "name": "to",
          "type": "address"
        },
        {
          "internalType": "uint256",
          "name": "tokenId",
          "type": "uint256"
        }
      ],
      "name": "approve",
      "outputs": [],
      "stateMutability": "nonpayable",
      "type": "function"
    },
    {
      "inputs": [
        {
          "internalType": "address",
          "name": "owner",
          "type": "address"
        }
      ],
      "name": "balanceOf",
      "outputs": [
        {
          "internalType": "uint256",
          "name": "",
          "type": "uint256"
        }
      ],
      "stateMutability": "view",
      "type": "function"
    },
    {
      "inputs": [
        {
          "internalType": "uint256",
          "name": "tokenId",
          "type": "uint256"
        }
      ],
      "name": "getApproved",
      "outputs": [
        {
          "internalType": "address",
          "name": "",
          "type": "address"
        }
      ],
      "stateMutability": "view",
      "type": "function"
    },
    {
      "inputs": [
        {
          "internalType": "address",
          "name": "owner",
          "type": "address"
        },
        {
          "internalType": "address",
          "name": "operator",
          "type": "address"
        }
      ],
      "name": "isApprovedForAll",
      "outputs": [
        {
          "internalType": "bool",
          "name": "",
          "type": "bool"
        }
      ],
      "stateMutability": "view",
      "type": "function"
    },
    {
      "inputs": [],
      "name": "makeAnEpicNFT",
      "outputs": [],
      "stateMutability": "nonpayable",
      "type": "function"
    },
    {
      "inputs": [],
      "name": "name",
      "outputs": [
        {
          "internalType": "string",
          "name": "",
          "type": "string"
        }
      ],
      "stateMutability": "view",
      "type": "function"
    },
    {
      "inputs": [
        {
          "internalType": "uint256",
          "name": "tokenId",
          "type": "uint256"
        }
      ],
      "name": "ownerOf",
      "outputs": [
        {
          "internalType": "address",
          "name": "",
          "type": "address"
        }
      ],
      "stateMutability": "view",
      "type": "function"
    },
    {
      "inputs": [
        {
          "internalType": "uint256",
          "name": "tokenId",
          "type": "uint256"
        }
      ],
      "name": "pickRandom",
      "outputs": [
        {
          "internalType": "string",
          "name": "",
          "type": "string"
        }
      ],
      "stateMutability": "view",
      "type": "function"
    },
    {
      "inputs": [
        {
          "internalType": "address",
          "name": "from",
          "type": "address"
        },
        {
          "internalType": "address",
          "name": "to",
          "type": "address"
        },
        {
          "internalType": "uint256",
          "name": "tokenId",
          "type": "uint256"
        }
      ],
      "name": "safeTransferFrom",
      "outputs": [],
      "stateMutability": "nonpayable",
      "type": "function"
    },
    {
      "inputs": [
        {
          "internalType": "address",
          "name": "from",
          "type": "address"
        },
        {
          "internalType": "address",
          "name": "to",
          "type": "address"
        },
        {
          "internalType": "uint256",
          "name": "tokenId",
          "type": "uint256"
        },
        {
          "internalType": "bytes",
          "name": "_data",
          "type": "bytes"
        }
      ],
      "name": "safeTransferFrom",
      "outputs": [],
      "stateMutability": "nonpayable",
      "type": "function"
    },
    {
      "inputs": [
        {
          "internalType": "address",
          "name": "operator",
          "type": "address"
        },
        {
          "internalType": "bool",
          "name": "approved",
          "type": "bool"
        }
      ],
      "name": "setApprovalForAll",
      "outputs": [],
      "stateMutability": "nonpayable",
      "type": "function"
    },
    {
      "inputs": [
        {
          "internalType": "bytes4",
          "name": "interfaceId",
          "type": "bytes4"
        }
      ],
      "name": "supportsInterface",
      "outputs": [
        {
          "internalType": "bool",
          "name": "",
          "type": "bool"
        }
      ],
      "stateMutability": "view",
      "type": "function"
    },
    {
      "inputs": [],
      "name": "symbol",
      "outputs": [
        {
          "internalType": "string",
          "name": "",
          "type": "string"
        }
      ],
      "stateMutability": "view",
      "type": "function"
    },
    {
      "inputs": [
        {
          "internalType": "uint256",
          "name": "tokenId",
          "type": "uint256"
        }
      ],
      "name": "tokenURI",
      "outputs": [
        {
          "internalType": "string",
          "name": "",
          "type": "string"
        }
      ],
      "stateMutability": "view",
      "type": "function"
    },
    {
      "inputs": [
        {
          "internalType": "address",
          "name": "from",
          "type": "address"
        },
        {
          "internalType": "address",
          "name": "to",
          "type": "address"
        },
        {
          "internalType": "uint256",
          "name": "tokenId",
          "type": "uint256"
        }
      ],
      "name": "transferFrom",
      "outputs": [],
      "stateMutability": "nonpayable",
      "type": "function"
    }
  ],
  "bytecode": "0x6080604052604051806101200160405280604051806060016040528060358152602001620034a5603591398152602001604051806060016040528060358152602001620034da603591398152602001604051806060016040528060358152602001620034066035913981526020016040518060600160405280603581526020016200350f6035913981526020016040518060600160405280603581526020016200357960359139815260200160405180606001604052806035815260200162003544603591398152602001604051806060016040528060358152602001620035ae6035913981526020016040518060600160405280603581526020016200343b603591398152602001604051806060016040528060358152602001620034706035913981525060089060096200013792919062000303565b503480156200014557600080fd5b506040518060400160405280600581526020017f5a694e46540000000000000000000000000000000000000000000000000000008152506040518060400160405280600281526020017f5a490000000000000000000000000000000000000000000000000000000000008152508160009080519060200190620001ca9291906200036a565b508060019080519060200190620001e39291906200036a565b505050620002316040518060400160405280602081526020017f54686973206973206d79205a694e465420636f6e74726163742e20576f6168218152506200023760201b62000e291760201c565b620005b5565b620002d7816040516024016200024e9190620004c9565b6040516020818303038152906040527f41304fac000000000000000000000000000000000000000000000000000000007bffffffffffffffffffffffffffffffffffffffffffffffffffffffff19166020820180517bffffffffffffffffffffffffffffffffffffffffffffffffffffffff8381831617835250505050620002da60201b60201c565b50565b60008151905060006a636f6e736f6c652e6c6f679050602083016000808483855afa5050505050565b82805482825590600052602060002090810192821562000357579160200282015b8281111562000356578251829080519060200190620003459291906200036a565b509160200191906001019062000324565b5b509050620003669190620003fb565b5090565b82805462000378906200053f565b90600052602060002090601f0160209004810192826200039c5760008555620003e8565b82601f10620003b757805160ff1916838001178555620003e8565b82800160010185558215620003e8579182015b82811115620003e7578251825591602001919060010190620003ca565b5b509050620003f7919062000423565b5090565b5b808211156200041f576000818162000415919062000442565b50600101620003fc565b5090565b5b808211156200043e57600081600090555060010162000424565b5090565b50805462000450906200053f565b6000825580601f1062000464575062000485565b601f01602090049060005260206000209081019062000484919062000423565b5b50565b60006200049582620004ed565b620004a18185620004f8565b9350620004b381856020860162000509565b620004be81620005a4565b840191505092915050565b60006020820190508181036000830152620004e5818462000488565b905092915050565b600081519050919050565b600082825260208201905092915050565b60005b83811015620005295780820151818401526020810190506200050c565b8381111562000539576000848401525b50505050565b600060028204905060018216806200055857607f821691505b602082108114156200056f576200056e62000575565b5b50919050565b7f4e487b7100000000000000000000000000000000000000000000000000000000600052602260045260246000fd5b6000601f19601f8301169050919050565b612e4180620005c56000396000f3fe608060405234801561001057600080fd5b50600436106100f55760003560e01c806370a0823111610097578063b88d4fde11610066578063b88d4fde14610296578063c87b56dd146102b2578063de9d132f146102e2578063e985e9c5146102ec576100f5565b806370a08231146101fc5780639159e0831461022c57806395d89b411461025c578063a22cb4651461027a576100f5565b8063095ea7b3116100d3578063095ea7b31461017857806323b872dd1461019457806342842e0e146101b05780636352211e146101cc576100f5565b806301ffc9a7146100fa57806306fdde031461012a578063081812fc14610148575b600080fd5b610114600480360381019061010f9190611efe565b61031c565b6040516101219190612764565b60405180910390f35b6101326103fe565b60405161013f919061277f565b60405180910390f35b610162600480360381019061015d9190611f50565b610490565b60405161016f91906126d4565b60405180910390f35b610192600480360381019061018d9190611ec2565b610515565b005b6101ae60048036038101906101a99190611dbc565b61062d565b005b6101ca60048036038101906101c59190611dbc565b61068d565b005b6101e660048036038101906101e19190611f50565b6106ad565b6040516101f391906126d4565b60405180910390f35b61021660048036038101906102119190611d57565b61075f565b60405161022391906129df565b60405180910390f35b61024660048036038101906102419190611f50565b610817565b604051610253919061277f565b60405180910390f35b610264610935565b604051610271919061277f565b60405180910390f35b610294600480360381019061028f9190611e86565b6109c7565b005b6102b060048036038101906102ab9190611e0b565b610b48565b005b6102cc60048036038101906102c79190611f50565b610baa565b6040516102d9919061277f565b60405180910390f35b6102ea610cfc565b005b61030660048036038101906103019190611d80565b610d95565b6040516103139190612764565b60405180910390f35b60007f80ac58cd000000000000000000000000000000000000000000000000000000007bffffffffffffffffffffffffffffffffffffffffffffffffffffffff1916827bffffffffffffffffffffffffffffffffffffffffffffffffffffffff191614806103e757507f5b5e139f000000000000000000000000000000000000000000000000000000007bffffffffffffffffffffffffffffffffffffffffffffffffffffffff1916827bffffffffffffffffffffffffffffffffffffffffffffffffffffffff1916145b806103f757506103f682610ec2565b5b9050919050565b60606000805461040d90612c0f565b80601f016020809104026020016040519081016040528092919081815260200182805461043990612c0f565b80156104865780601f1061045b57610100808354040283529160200191610486565b820191906000526020600020905b81548152906001019060200180831161046957829003601f168201915b5050505050905090565b600061049b82610f2c565b6104da576040517f08c379a00000000000000000000000000000000000000000000000000000000081526004016104d19061293f565b60405180910390fd5b6004600083815260200190815260200160002060009054906101000a900473ffffffffffffffffffffffffffffffffffffffff169050919050565b6000610520826106ad565b90508073ffffffffffffffffffffffffffffffffffffffff168373ffffffffffffffffffffffffffffffffffffffff161415610591576040517f08c379a00000000000000000000000000000000000000000000000000000000081526004016105889061299f565b60405180910390fd5b8073ffffffffffffffffffffffffffffffffffffffff166105b0610f98565b73ffffffffffffffffffffffffffffffffffffffff1614806105df57506105de816105d9610f98565b610d95565b5b61061e576040517f08c379a00000000000000000000000000000000000000000000000000000000081526004016106159061287f565b60405180910390fd5b6106288383610fa0565b505050565b61063e610638610f98565b82611059565b61067d576040517f08c379a0000000000000000000000000000000000000000000000000000000008152600401610674906129bf565b60405180910390fd5b610688838383611137565b505050565b6106a883838360405180602001604052806000815250610b48565b505050565b6000806002600084815260200190815260200160002060009054906101000a900473ffffffffffffffffffffffffffffffffffffffff169050600073ffffffffffffffffffffffffffffffffffffffff168173ffffffffffffffffffffffffffffffffffffffff161415610756576040517f08c379a000000000000000000000000000000000000000000000000000000000815260040161074d906128bf565b60405180910390fd5b80915050919050565b60008073ffffffffffffffffffffffffffffffffffffffff168273ffffffffffffffffffffffffffffffffffffffff1614156107d0576040517f08c379a00000000000000000000000000000000000000000000000000000000081526004016107c79061289f565b60405180910390fd5b600360008373ffffffffffffffffffffffffffffffffffffffff1673ffffffffffffffffffffffffffffffffffffffff168152602001908152602001600020549050919050565b6060600061084b61082784611393565b60405160200161083791906126b2565b604051602081830303815290604052611540565b90506008805490508161085e9190612c8a565b90506008818154811061089a577f4e487b7100000000000000000000000000000000000000000000000000000000600052603260045260246000fd5b9060005260206000200180546108af90612c0f565b80601f01602080910402602001604051908101604052809291908181526020018280546108db90612c0f565b80156109285780601f106108fd57610100808354040283529160200191610928565b820191906000526020600020905b81548152906001019060200180831161090b57829003601f168201915b5050505050915050919050565b60606001805461094490612c0f565b80601f016020809104026020016040519081016040528092919081815260200182805461097090612c0f565b80156109bd5780601f10610992576101008083540402835291602001916109bd565b820191906000526020600020905b8154815290600101906020018083116109a057829003601f168201915b5050505050905090565b6109cf610f98565b73ffffffffffffffffffffffffffffffffffffffff168273ffffffffffffffffffffffffffffffffffffffff161415610a3d576040517f08c379a0000000000000000000000000000000000000000000000000000000008152600401610a349061283f565b60405180910390fd5b8060056000610a4a610f98565b73ffffffffffffffffffffffffffffffffffffffff1673ffffffffffffffffffffffffffffffffffffffff16815260200190815260200160002060008473ffffffffffffffffffffffffffffffffffffffff1673ffffffffffffffffffffffffffffffffffffffff16815260200190815260200160002060006101000a81548160ff0219169083151502179055508173ffffffffffffffffffffffffffffffffffffffff16610af7610f98565b73ffffffffffffffffffffffffffffffffffffffff167f17307eab39ab6107e8899845ad3d59bd9653f200f220920489ca2b5937696c3183604051610b3c9190612764565b60405180910390a35050565b610b59610b53610f98565b83611059565b610b98576040517f08c379a0000000000000000000000000000000000000000000000000000000008152600401610b8f906129bf565b60405180910390fd5b610ba484848484611573565b50505050565b6060610bb582610f2c565b610bf4576040517f08c379a0000000000000000000000000000000000000000000000000000000008152600401610beb9061291f565b60405180910390fd5b6000600660008481526020019081526020016000208054610c1490612c0f565b80601f0160208091040260200160405190810160405280929190818152602001828054610c4090612c0f565b8015610c8d5780601f10610c6257610100808354040283529160200191610c8d565b820191906000526020600020905b815481529060010190602001808311610c7057829003601f168201915b505050505090506000610c9e6115cf565b9050600081511415610cb4578192505050610cf7565b600082511115610ce9578082604051602001610cd192919061268e565b60405160208183030381529060405292505050610cf7565b610cf2846115e6565b925050505b919050565b610d06600761168d565b6000610d1260076116a3565b9050610d1e33826116b1565b610d41604051806060016040528060278152602001612de56027913982336116cf565b6000610d4c82610817565b9050610d58828261176e565b7febb98688741ffa4c7589bf325de30cf7becb63de567842e1ccdb6cb949fdc82c3383604051610d8992919061273b565b60405180910390a15050565b6000600560008473ffffffffffffffffffffffffffffffffffffffff1673ffffffffffffffffffffffffffffffffffffffff16815260200190815260200160002060008373ffffffffffffffffffffffffffffffffffffffff1673ffffffffffffffffffffffffffffffffffffffff16815260200190815260200160002060009054906101000a900460ff16905092915050565b610ebf81604051602401610e3d919061277f565b6040516020818303038152906040527f41304fac000000000000000000000000000000000000000000000000000000007bffffffffffffffffffffffffffffffffffffffffffffffffffffffff19166020820180517bffffffffffffffffffffffffffffffffffffffffffffffffffffffff83818316178352505050506117e2565b50565b60007f01ffc9a7000000000000000000000000000000000000000000000000000000007bffffffffffffffffffffffffffffffffffffffffffffffffffffffff1916827bffffffffffffffffffffffffffffffffffffffffffffffffffffffff1916149050919050565b60008073ffffffffffffffffffffffffffffffffffffffff166002600084815260200190815260200160002060009054906101000a900473ffffffffffffffffffffffffffffffffffffffff1673ffffffffffffffffffffffffffffffffffffffff1614159050919050565b600033905090565b816004600083815260200190815260200160002060006101000a81548173ffffffffffffffffffffffffffffffffffffffff021916908373ffffffffffffffffffffffffffffffffffffffff160217905550808273ffffffffffffffffffffffffffffffffffffffff16611013836106ad565b73ffffffffffffffffffffffffffffffffffffffff167f8c5be1e5ebec7d5bd14f71427d1e84f3dd0314c0f7b2291e5b200ac8c7c3b92560405160405180910390a45050565b600061106482610f2c565b6110a3576040517f08c379a000000000000000000000000000000000000000000000000000000000815260040161109a9061285f565b60405180910390fd5b60006110ae836106ad565b90508073ffffffffffffffffffffffffffffffffffffffff168473ffffffffffffffffffffffffffffffffffffffff16148061111d57508373ffffffffffffffffffffffffffffffffffffffff1661110584610490565b73ffffffffffffffffffffffffffffffffffffffff16145b8061112e575061112d8185610d95565b5b91505092915050565b8273ffffffffffffffffffffffffffffffffffffffff16611157826106ad565b73ffffffffffffffffffffffffffffffffffffffff16146111ad576040517f08c379a00000000000000000000000000000000000000000000000000000000081526004016111a49061295f565b60405180910390fd5b600073ffffffffffffffffffffffffffffffffffffffff168273ffffffffffffffffffffffffffffffffffffffff16141561121d576040517f08c379a00000000000000000000000000000000000000000000000000000000081526004016112149061281f565b60405180910390fd5b61122883838361180b565b611233600082610fa0565b6001600360008573ffffffffffffffffffffffffffffffffffffffff1673ffffffffffffffffffffffffffffffffffffffff16815260200190815260200160002060008282546112839190612b25565b925050819055506001600360008473ffffffffffffffffffffffffffffffffffffffff1673ffffffffffffffffffffffffffffffffffffffff16815260200190815260200160002060008282546112da9190612a9e565b92505081905550816002600083815260200190815260200160002060006101000a81548173ffffffffffffffffffffffffffffffffffffffff021916908373ffffffffffffffffffffffffffffffffffffffff160217905550808273ffffffffffffffffffffffffffffffffffffffff168473ffffffffffffffffffffffffffffffffffffffff167fddf252ad1be2c89b69c2b068fc378daa952ba7f163c4a11628f55a4df523b3ef60405160405180910390a4505050565b606060008214156113db576040518060400160405280600181526020017f3000000000000000000000000000000000000000000000000000000000000000815250905061153b565b600082905060005b6000821461140d5780806113f690612c41565b915050600a826114069190612af4565b91506113e3565b60008167ffffffffffffffff81111561144f577f4e487b7100000000000000000000000000000000000000000000000000000000600052604160045260246000fd5b6040519080825280601f01601f1916602001820160405280156114815781602001600182028036833780820191505090505b5090505b600085146115345760018261149a9190612b25565b9150600a856114a99190612c8a565b60306114b59190612a9e565b60f81b8183815181106114f1577f4e487b7100000000000000000000000000000000000000000000000000000000600052603260045260246000fd5b60200101907effffffffffffffffffffffffffffffffffffffffffffffffffffffffffffff1916908160001a905350600a8561152d9190612af4565b9450611485565b8093505050505b919050565b6000816040516020016115539190612677565b6040516020818303038152906040528051906020012060001c9050919050565b61157e848484611137565b61158a84848484611810565b6115c9576040517f08c379a00000000000000000000000000000000000000000000000000000000081526004016115c0906127df565b60405180910390fd5b50505050565b606060405180602001604052806000815250905090565b60606115f182610f2c565b611630576040517f08c379a00000000000000000000000000000000000000000000000000000000081526004016116279061297f565b60405180910390fd5b600061163a6115cf565b9050600081511161165a5760405180602001604052806000815250611685565b8061166484611393565b60405160200161167592919061268e565b6040516020818303038152906040525b915050919050565b6001816000016000828254019250508190555050565b600081600001549050919050565b6116cb8282604051806020016040528060008152506119a7565b5050565b6117698383836040516024016116e7939291906127a1565b6040516020818303038152906040527fe3849f79000000000000000000000000000000000000000000000000000000007bffffffffffffffffffffffffffffffffffffffffffffffffffffffff19166020820180517bffffffffffffffffffffffffffffffffffffffffffffffffffffffff83818316178352505050506117e2565b505050565b61177782610f2c565b6117b6576040517f08c379a00000000000000000000000000000000000000000000000000000000081526004016117ad906128df565b60405180910390fd5b806006600084815260200190815260200160002090805190602001906117dd929190611be3565b505050565b60008151905060006a636f6e736f6c652e6c6f679050602083016000808483855afa5050505050565b505050565b60006118318473ffffffffffffffffffffffffffffffffffffffff16611a02565b1561199a578373ffffffffffffffffffffffffffffffffffffffff1663150b7a0261185a610f98565b8786866040518563ffffffff1660e01b815260040161187c94939291906126ef565b602060405180830381600087803b15801561189657600080fd5b505af19250505080156118c757506040513d601f19601f820116820180604052508101906118c49190611f27565b60015b61194a573d80600081146118f7576040519150601f19603f3d011682016040523d82523d6000602084013e6118fc565b606091505b50600081511415611942576040517f08c379a0000000000000000000000000000000000000000000000000000000008152600401611939906127df565b60405180910390fd5b805181602001fd5b63150b7a0260e01b7bffffffffffffffffffffffffffffffffffffffffffffffffffffffff1916817bffffffffffffffffffffffffffffffffffffffffffffffffffffffff19161491505061199f565b600190505b949350505050565b6119b18383611a15565b6119be6000848484611810565b6119fd576040517f08c379a00000000000000000000000000000000000000000000000000000000081526004016119f4906127df565b60405180910390fd5b505050565b600080823b905060008111915050919050565b600073ffffffffffffffffffffffffffffffffffffffff168273ffffffffffffffffffffffffffffffffffffffff161415611a85576040517f08c379a0000000000000000000000000000000000000000000000000000000008152600401611a7c906128ff565b60405180910390fd5b611a8e81610f2c565b15611ace576040517f08c379a0000000000000000000000000000000000000000000000000000000008152600401611ac5906127ff565b60405180910390fd5b611ada6000838361180b565b6001600360008473ffffffffffffffffffffffffffffffffffffffff1673ffffffffffffffffffffffffffffffffffffffff1681526020019081526020016000206000828254611b2a9190612a9e565b92505081905550816002600083815260200190815260200160002060006101000a81548173ffffffffffffffffffffffffffffffffffffffff021916908373ffffffffffffffffffffffffffffffffffffffff160217905550808273ffffffffffffffffffffffffffffffffffffffff16600073ffffffffffffffffffffffffffffffffffffffff167fddf252ad1be2c89b69c2b068fc378daa952ba7f163c4a11628f55a4df523b3ef60405160405180910390a45050565b828054611bef90612c0f565b90600052602060002090601f016020900481019282611c115760008555611c58565b82601f10611c2a57805160ff1916838001178555611c58565b82800160010185558215611c58579182015b82811115611c57578251825591602001919060010190611c3c565b5b509050611c659190611c69565b5090565b5b80821115611c82576000816000905550600101611c6a565b5090565b6000611c99611c9484612a2b565b6129fa565b905082815260208101848484011115611cb157600080fd5b611cbc848285612bcd565b509392505050565b600081359050611cd381612d88565b92915050565b600081359050611ce881612d9f565b92915050565b600081359050611cfd81612db6565b92915050565b600081519050611d1281612db6565b92915050565b600082601f830112611d2957600080fd5b8135611d39848260208601611c86565b91505092915050565b600081359050611d5181612dcd565b92915050565b600060208284031215611d6957600080fd5b6000611d7784828501611cc4565b91505092915050565b60008060408385031215611d9357600080fd5b6000611da185828601611cc4565b9250506020611db285828601611cc4565b9150509250929050565b600080600060608486031215611dd157600080fd5b6000611ddf86828701611cc4565b9350506020611df086828701611cc4565b9250506040611e0186828701611d42565b9150509250925092565b60008060008060808587031215611e2157600080fd5b6000611e2f87828801611cc4565b9450506020611e4087828801611cc4565b9350506040611e5187828801611d42565b925050606085013567ffffffffffffffff811115611e6e57600080fd5b611e7a87828801611d18565b91505092959194509250565b60008060408385031215611e9957600080fd5b6000611ea785828601611cc4565b9250506020611eb885828601611cd9565b9150509250929050565b60008060408385031215611ed557600080fd5b6000611ee385828601611cc4565b9250506020611ef485828601611d42565b9150509250929050565b600060208284031215611f1057600080fd5b6000611f1e84828501611cee565b91505092915050565b600060208284031215611f3957600080fd5b6000611f4784828501611d03565b91505092915050565b600060208284031215611f6257600080fd5b6000611f7084828501611d42565b91505092915050565b611f8281612b59565b82525050565b611f9181612b6b565b82525050565b6000611fa282612a5b565b611fac8185612a71565b9350611fbc818560208601612bdc565b611fc581612d77565b840191505092915050565b6000611fdb82612a66565b611fe58185612a82565b9350611ff5818560208601612bdc565b611ffe81612d77565b840191505092915050565b600061201482612a66565b61201e8185612a93565b935061202e818560208601612bdc565b80840191505092915050565b6000612047603283612a82565b91507f4552433732313a207472616e7366657220746f206e6f6e20455243373231526560008301527f63656976657220696d706c656d656e74657200000000000000000000000000006020830152604082019050919050565b60006120ad601c83612a82565b91507f4552433732313a20746f6b656e20616c7265616479206d696e746564000000006000830152602082019050919050565b60006120ed600383612a93565b91507f576f5700000000000000000000000000000000000000000000000000000000006000830152600382019050919050565b600061212d602483612a82565b91507f4552433732313a207472616e7366657220746f20746865207a65726f2061646460008301527f72657373000000000000000000000000000000000000000000000000000000006020830152604082019050919050565b6000612193601983612a82565b91507f4552433732313a20617070726f766520746f2063616c6c6572000000000000006000830152602082019050919050565b60006121d3602c83612a82565b91507f4552433732313a206f70657261746f7220717565727920666f72206e6f6e657860008301527f697374656e7420746f6b656e00000000000000000000000000000000000000006020830152604082019050919050565b6000612239603883612a82565b91507f4552433732313a20617070726f76652063616c6c6572206973206e6f74206f7760008301527f6e6572206e6f7220617070726f76656420666f7220616c6c00000000000000006020830152604082019050919050565b600061229f602a83612a82565b91507f4552433732313a2062616c616e636520717565727920666f7220746865207a6560008301527f726f2061646472657373000000000000000000000000000000000000000000006020830152604082019050919050565b6000612305602983612a82565b91507f4552433732313a206f776e657220717565727920666f72206e6f6e657869737460008301527f656e7420746f6b656e00000000000000000000000000000000000000000000006020830152604082019050919050565b600061236b602e83612a82565b91507f45524337323155524953746f726167653a2055524920736574206f66206e6f6e60008301527f6578697374656e7420746f6b656e0000000000000000000000000000000000006020830152604082019050919050565b60006123d1602083612a82565b91507f4552433732313a206d696e7420746f20746865207a65726f20616464726573736000830152602082019050919050565b6000612411603183612a82565b91507f45524337323155524953746f726167653a2055524920717565727920666f722060008301527f6e6f6e6578697374656e7420746f6b656e0000000000000000000000000000006020830152604082019050919050565b6000612477602c83612a82565b91507f4552433732313a20617070726f76656420717565727920666f72206e6f6e657860008301527f697374656e7420746f6b656e00000000000000000000000000000000000000006020830152604082019050919050565b60006124dd602983612a82565b91507f4552433732313a207472616e73666572206f6620746f6b656e2074686174206960008301527f73206e6f74206f776e00000000000000000000000000000000000000000000006020830152604082019050919050565b6000612543602f83612a82565b91507f4552433732314d657461646174613a2055524920717565727920666f72206e6f60008301527f6e6578697374656e7420746f6b656e00000000000000000000000000000000006020830152604082019050919050565b60006125a9602183612a82565b91507f4552433732313a20617070726f76616c20746f2063757272656e74206f776e6560008301527f72000000000000000000000000000000000000000000000000000000000000006020830152604082019050919050565b600061260f603183612a82565b91507f4552433732313a207472616e736665722063616c6c6572206973206e6f74206f60008301527f776e6572206e6f7220617070726f7665640000000000000000000000000000006020830152604082019050919050565b61267181612bc3565b82525050565b60006126838284612009565b915081905092915050565b600061269a8285612009565b91506126a68284612009565b91508190509392505050565b60006126bd826120e0565b91506126c98284612009565b915081905092915050565b60006020820190506126e96000830184611f79565b92915050565b60006080820190506127046000830187611f79565b6127116020830186611f79565b61271e6040830185612668565b81810360608301526127308184611f97565b905095945050505050565b60006040820190506127506000830185611f79565b61275d6020830184612668565b9392505050565b60006020820190506127796000830184611f88565b92915050565b600060208201905081810360008301526127998184611fd0565b905092915050565b600060608201905081810360008301526127bb8186611fd0565b90506127ca6020830185612668565b6127d76040830184611f79565b949350505050565b600060208201905081810360008301526127f88161203a565b9050919050565b60006020820190508181036000830152612818816120a0565b9050919050565b6000602082019050818103600083015261283881612120565b9050919050565b6000602082019050818103600083015261285881612186565b9050919050565b60006020820190508181036000830152612878816121c6565b9050919050565b600060208201905081810360008301526128988161222c565b9050919050565b600060208201905081810360008301526128b881612292565b9050919050565b600060208201905081810360008301526128d8816122f8565b9050919050565b600060208201905081810360008301526128f88161235e565b9050919050565b60006020820190508181036000830152612918816123c4565b9050919050565b6000602082019050818103600083015261293881612404565b9050919050565b600060208201905081810360008301526129588161246a565b9050919050565b60006020820190508181036000830152612978816124d0565b9050919050565b6000602082019050818103600083015261299881612536565b9050919050565b600060208201905081810360008301526129b88161259c565b9050919050565b600060208201905081810360008301526129d881612602565b9050919050565b60006020820190506129f46000830184612668565b92915050565b6000604051905081810181811067ffffffffffffffff82111715612a2157612a20612d48565b5b8060405250919050565b600067ffffffffffffffff821115612a4657612a45612d48565b5b601f19601f8301169050602081019050919050565b600081519050919050565b600081519050919050565b600082825260208201905092915050565b600082825260208201905092915050565b600081905092915050565b6000612aa982612bc3565b9150612ab483612bc3565b9250827fffffffffffffffffffffffffffffffffffffffffffffffffffffffffffffffff03821115612ae957612ae8612cbb565b5b828201905092915050565b6000612aff82612bc3565b9150612b0a83612bc3565b925082612b1a57612b19612cea565b5b828204905092915050565b6000612b3082612bc3565b9150612b3b83612bc3565b925082821015612b4e57612b4d612cbb565b5b828203905092915050565b6000612b6482612ba3565b9050919050565b60008115159050919050565b60007fffffffff0000000000000000000000000000000000000000000000000000000082169050919050565b600073ffffffffffffffffffffffffffffffffffffffff82169050919050565b6000819050919050565b82818337600083830152505050565b60005b83811015612bfa578082015181840152602081019050612bdf565b83811115612c09576000848401525b50505050565b60006002820490506001821680612c2757607f821691505b60208210811415612c3b57612c3a612d19565b5b50919050565b6000612c4c82612bc3565b91507fffffffffffffffffffffffffffffffffffffffffffffffffffffffffffffffff821415612c7f57612c7e612cbb565b5b600182019050919050565b6000612c9582612bc3565b9150612ca083612bc3565b925082612cb057612caf612cea565b5b828206905092915050565b7f4e487b7100000000000000000000000000000000000000000000000000000000600052601160045260246000fd5b7f4e487b7100000000000000000000000000000000000000000000000000000000600052601260045260246000fd5b7f4e487b7100000000000000000000000000000000000000000000000000000000600052602260045260246000fd5b7f4e487b7100000000000000000000000000000000000000000000000000000000600052604160045260246000fd5b6000601f19601f8301169050919050565b612d9181612b59565b8114612d9c57600080fd5b50565b612da881612b6b565b8114612db357600080fd5b50565b612dbf81612b77565b8114612dca57600080fd5b50565b612dd681612bc3565b8114612de157600080fd5b5056fe416e204e4654207769746820494420257320686173206265656e206d696e746564206279202573a264697066735822122052a2332c720cfb91202baa0a01e8befdcba30df13bd13d53b0d1cccb05da5b3164736f6c63430008000033697066733a2f2f516d5856647a334179345047456d64576466374e786a793634386542384d75343834327831504673395874437342697066733a2f2f516d516d693844594a4b466367594a6467727a595934555a6a63544752784a616856766139385974567352563258697066733a2f2f516d554d62644e7a71507a765347476a76446b6a4d7464557a4b614c3667387763365a546e687a61693445724e35697066733a2f2f516d653168545770316d784b343732667137594c4a43706d564d6a58555a6b7041376a6e7a5731476743714d5564697066733a2f2f516d534b703438583439455638544e7962614c4845423571585332475638696b6745355374626931757072687856697066733a2f2f516d576337557434565a7644476178484569787274356564673341486a576f703167367839425559313369506972697066733a2f2f516d6232333864594a326563536731446a654d723576386378337456537678506e575842504e55664a7a53424e59697066733a2f2f516d56686438347872583246726f3648546d76414d554b513551713935434669547277425150596b4a78526f7a41697066733a2f2f516d61444a717959355950484375777955676f4c456153646d70786d74314e316653796469533874667a43767959",
  "linkReferences": {},
  "deployedLinkReferences": {}
}